{
  "_format": "hh-sol-artifact-1",
  "contractName": "Swap",
  "sourceName": "contracts/Swap.sol",
  "abi": [
    {
      "anonymous": false,
      "inputs": [
        {
          "indexed": true,
          "internalType": "address",
          "name": "provider",
          "type": "address"
        },
        {
          "indexed": false,
          "internalType": "uint256[]",
          "name": "tokenAmounts",
          "type": "uint256[]"
        },
        {
          "indexed": false,
          "internalType": "uint256[]",
          "name": "fees",
          "type": "uint256[]"
        },
        {
          "indexed": false,
          "internalType": "uint256",
          "name": "invariant",
          "type": "uint256"
        },
        {
          "indexed": false,
          "internalType": "uint256",
          "name": "lpTokenSupply",
          "type": "uint256"
        }
      ],
      "name": "AddLiquidity",
      "type": "event"
    },
    {
      "anonymous": false,
      "inputs": [
        {
          "indexed": false,
          "internalType": "uint256",
          "name": "newAdminFee",
          "type": "uint256"
        }
      ],
      "name": "NewAdminFee",
      "type": "event"
    },
    {
      "anonymous": false,
      "inputs": [
        {
          "indexed": false,
          "internalType": "uint256",
          "name": "newSwapFee",
          "type": "uint256"
        }
      ],
      "name": "NewSwapFee",
      "type": "event"
    },
    {
      "anonymous": false,
      "inputs": [
        {
          "indexed": false,
          "internalType": "uint256",
          "name": "newWithdrawFee",
          "type": "uint256"
        }
      ],
      "name": "NewWithdrawFee",
      "type": "event"
    },
    {
      "anonymous": false,
      "inputs": [
        {
          "indexed": true,
          "internalType": "address",
          "name": "previousOwner",
          "type": "address"
        },
        {
          "indexed": true,
          "internalType": "address",
          "name": "newOwner",
          "type": "address"
        }
      ],
      "name": "OwnershipTransferred",
      "type": "event"
    },
    {
      "anonymous": false,
      "inputs": [
        {
          "indexed": false,
          "internalType": "address",
          "name": "account",
          "type": "address"
        }
      ],
      "name": "Paused",
      "type": "event"
    },
    {
      "anonymous": false,
      "inputs": [
        {
          "indexed": false,
          "internalType": "uint256",
          "name": "oldA",
          "type": "uint256"
        },
        {
          "indexed": false,
          "internalType": "uint256",
          "name": "newA",
          "type": "uint256"
        },
        {
          "indexed": false,
          "internalType": "uint256",
          "name": "initialTime",
          "type": "uint256"
        },
        {
          "indexed": false,
          "internalType": "uint256",
          "name": "futureTime",
          "type": "uint256"
        }
      ],
      "name": "RampA",
      "type": "event"
    },
    {
      "anonymous": false,
      "inputs": [
        {
          "indexed": true,
          "internalType": "address",
          "name": "provider",
          "type": "address"
        },
        {
          "indexed": false,
          "internalType": "uint256[]",
          "name": "tokenAmounts",
          "type": "uint256[]"
        },
        {
          "indexed": false,
          "internalType": "uint256",
          "name": "lpTokenSupply",
          "type": "uint256"
        }
      ],
      "name": "RemoveLiquidity",
      "type": "event"
    },
    {
      "anonymous": false,
      "inputs": [
        {
          "indexed": true,
          "internalType": "address",
          "name": "provider",
          "type": "address"
        },
        {
          "indexed": false,
          "internalType": "uint256[]",
          "name": "tokenAmounts",
          "type": "uint256[]"
        },
        {
          "indexed": false,
          "internalType": "uint256[]",
          "name": "fees",
          "type": "uint256[]"
        },
        {
          "indexed": false,
          "internalType": "uint256",
          "name": "invariant",
          "type": "uint256"
        },
        {
          "indexed": false,
          "internalType": "uint256",
          "name": "lpTokenSupply",
          "type": "uint256"
        }
      ],
      "name": "RemoveLiquidityImbalance",
      "type": "event"
    },
    {
      "anonymous": false,
      "inputs": [
        {
          "indexed": true,
          "internalType": "address",
          "name": "provider",
          "type": "address"
        },
        {
          "indexed": false,
          "internalType": "uint256",
          "name": "lpTokenAmount",
          "type": "uint256"
        },
        {
          "indexed": false,
          "internalType": "uint256",
          "name": "lpTokenSupply",
          "type": "uint256"
        },
        {
          "indexed": false,
          "internalType": "uint256",
          "name": "boughtId",
          "type": "uint256"
        },
        {
          "indexed": false,
          "internalType": "uint256",
          "name": "tokensBought",
          "type": "uint256"
        }
      ],
      "name": "RemoveLiquidityOne",
      "type": "event"
    },
    {
      "anonymous": false,
      "inputs": [
        {
          "indexed": false,
          "internalType": "uint256",
          "name": "currentA",
          "type": "uint256"
        },
        {
          "indexed": false,
          "internalType": "uint256",
          "name": "time",
          "type": "uint256"
        }
      ],
      "name": "StopRampA",
      "type": "event"
    },
    {
      "anonymous": false,
      "inputs": [
        {
          "indexed": true,
          "internalType": "address",
          "name": "buyer",
          "type": "address"
        },
        {
          "indexed": false,
          "internalType": "uint256",
          "name": "tokensSold",
          "type": "uint256"
        },
        {
          "indexed": false,
          "internalType": "uint256",
          "name": "tokensBought",
          "type": "uint256"
        },
        {
          "indexed": false,
          "internalType": "uint128",
          "name": "soldId",
          "type": "uint128"
        },
        {
          "indexed": false,
          "internalType": "uint128",
          "name": "boughtId",
          "type": "uint128"
        }
      ],
      "name": "TokenSwap",
      "type": "event"
    },
    {
      "anonymous": false,
      "inputs": [
        {
          "indexed": false,
          "internalType": "address",
          "name": "account",
          "type": "address"
        }
      ],
      "name": "Unpaused",
      "type": "event"
    },
    {
      "inputs": [
        {
          "internalType": "uint256[]",
          "name": "amounts",
          "type": "uint256[]"
        },
        {
          "internalType": "uint256",
          "name": "minToMint",
          "type": "uint256"
        },
        {
          "internalType": "uint256",
          "name": "deadline",
          "type": "uint256"
        }
      ],
      "name": "addLiquidity",
      "outputs": [
        {
          "internalType": "uint256",
          "name": "",
          "type": "uint256"
        }
      ],
      "stateMutability": "nonpayable",
      "type": "function"
    },
    {
      "inputs": [
        {
          "internalType": "address",
          "name": "user",
          "type": "address"
        }
      ],
      "name": "calculateCurrentWithdrawFee",
      "outputs": [
        {
          "internalType": "uint256",
          "name": "",
          "type": "uint256"
        }
      ],
      "stateMutability": "view",
      "type": "function"
    },
    {
      "inputs": [
        {
          "internalType": "address",
          "name": "account",
          "type": "address"
        },
        {
          "internalType": "uint256",
          "name": "amount",
          "type": "uint256"
        }
      ],
      "name": "calculateRemoveLiquidity",
      "outputs": [
        {
          "internalType": "uint256[]",
          "name": "",
          "type": "uint256[]"
        }
      ],
      "stateMutability": "view",
      "type": "function"
    },
    {
      "inputs": [
        {
          "internalType": "address",
          "name": "account",
          "type": "address"
        },
        {
          "internalType": "uint256",
          "name": "tokenAmount",
          "type": "uint256"
        },
        {
          "internalType": "uint8",
          "name": "tokenIndex",
          "type": "uint8"
        }
      ],
      "name": "calculateRemoveLiquidityOneToken",
      "outputs": [
        {
          "internalType": "uint256",
          "name": "availableTokenAmount",
          "type": "uint256"
        }
      ],
      "stateMutability": "view",
      "type": "function"
    },
    {
      "inputs": [
        {
          "internalType": "uint8",
          "name": "tokenIndexFrom",
          "type": "uint8"
        },
        {
          "internalType": "uint8",
          "name": "tokenIndexTo",
          "type": "uint8"
        },
        {
          "internalType": "uint256",
          "name": "dx",
          "type": "uint256"
        }
      ],
      "name": "calculateSwap",
      "outputs": [
        {
          "internalType": "uint256",
          "name": "",
          "type": "uint256"
        }
      ],
      "stateMutability": "view",
      "type": "function"
    },
    {
      "inputs": [
        {
          "internalType": "address",
          "name": "account",
          "type": "address"
        },
        {
          "internalType": "uint256[]",
          "name": "amounts",
          "type": "uint256[]"
        },
        {
          "internalType": "bool",
          "name": "deposit",
          "type": "bool"
        }
      ],
      "name": "calculateTokenAmount",
      "outputs": [
        {
          "internalType": "uint256",
          "name": "",
          "type": "uint256"
        }
      ],
      "stateMutability": "view",
      "type": "function"
    },
    {
      "inputs": [],
      "name": "getA",
      "outputs": [
        {
          "internalType": "uint256",
          "name": "",
          "type": "uint256"
        }
      ],
      "stateMutability": "view",
      "type": "function"
    },
    {
      "inputs": [],
      "name": "getAPrecise",
      "outputs": [
        {
          "internalType": "uint256",
          "name": "",
          "type": "uint256"
        }
      ],
      "stateMutability": "view",
      "type": "function"
    },
    {
      "inputs": [
        {
          "internalType": "uint256",
          "name": "index",
          "type": "uint256"
        }
      ],
      "name": "getAdminBalance",
      "outputs": [
        {
          "internalType": "uint256",
          "name": "",
          "type": "uint256"
        }
      ],
      "stateMutability": "view",
      "type": "function"
    },
    {
      "inputs": [
        {
          "internalType": "address",
          "name": "user",
          "type": "address"
        }
      ],
      "name": "getDepositTimestamp",
      "outputs": [
        {
          "internalType": "uint256",
          "name": "",
          "type": "uint256"
        }
      ],
      "stateMutability": "view",
      "type": "function"
    },
    {
      "inputs": [
        {
          "internalType": "uint8",
          "name": "index",
          "type": "uint8"
        }
      ],
      "name": "getToken",
      "outputs": [
        {
          "internalType": "contract IERC20",
          "name": "",
          "type": "address"
        }
      ],
      "stateMutability": "view",
      "type": "function"
    },
    {
      "inputs": [
        {
          "internalType": "uint8",
          "name": "index",
          "type": "uint8"
        }
      ],
      "name": "getTokenBalance",
      "outputs": [
        {
          "internalType": "uint256",
          "name": "",
          "type": "uint256"
        }
      ],
      "stateMutability": "view",
      "type": "function"
    },
    {
      "inputs": [
        {
          "internalType": "address",
          "name": "tokenAddress",
          "type": "address"
        }
      ],
      "name": "getTokenIndex",
      "outputs": [
        {
          "internalType": "uint8",
          "name": "",
          "type": "uint8"
        }
      ],
      "stateMutability": "view",
      "type": "function"
    },
    {
      "inputs": [],
      "name": "getVirtualPrice",
      "outputs": [
        {
          "internalType": "uint256",
          "name": "",
          "type": "uint256"
        }
      ],
      "stateMutability": "view",
      "type": "function"
    },
    {
      "inputs": [
        {
          "internalType": "contract IERC20[]",
          "name": "_pooledTokens",
          "type": "address[]"
        },
        {
          "internalType": "uint8[]",
          "name": "decimals",
          "type": "uint8[]"
        },
        {
          "internalType": "string",
          "name": "lpTokenName",
          "type": "string"
        },
        {
          "internalType": "string",
          "name": "lpTokenSymbol",
          "type": "string"
        },
        {
          "internalType": "uint256",
          "name": "_a",
          "type": "uint256"
        },
        {
          "internalType": "uint256",
          "name": "_fee",
          "type": "uint256"
        },
        {
          "internalType": "uint256",
          "name": "_adminFee",
          "type": "uint256"
        },
        {
          "internalType": "uint256",
          "name": "_withdrawFee",
          "type": "uint256"
        }
      ],
      "name": "initialize",
      "outputs": [],
      "stateMutability": "nonpayable",
      "type": "function"
    },
    {
      "inputs": [],
      "name": "owner",
      "outputs": [
        {
          "internalType": "address",
          "name": "",
          "type": "address"
        }
      ],
      "stateMutability": "view",
      "type": "function"
    },
    {
      "inputs": [],
      "name": "pause",
      "outputs": [],
      "stateMutability": "nonpayable",
      "type": "function"
    },
    {
      "inputs": [],
      "name": "paused",
      "outputs": [
        {
          "internalType": "bool",
          "name": "",
          "type": "bool"
        }
      ],
      "stateMutability": "view",
      "type": "function"
    },
    {
      "inputs": [
        {
          "internalType": "uint256",
          "name": "futureA",
          "type": "uint256"
        },
        {
          "internalType": "uint256",
          "name": "futureTime",
          "type": "uint256"
        }
      ],
      "name": "rampA",
      "outputs": [],
      "stateMutability": "nonpayable",
      "type": "function"
    },
    {
      "inputs": [
        {
          "internalType": "uint256",
          "name": "amount",
          "type": "uint256"
        },
        {
          "internalType": "uint256[]",
          "name": "minAmounts",
          "type": "uint256[]"
        },
        {
          "internalType": "uint256",
          "name": "deadline",
          "type": "uint256"
        }
      ],
      "name": "removeLiquidity",
      "outputs": [
        {
          "internalType": "uint256[]",
          "name": "",
          "type": "uint256[]"
        }
      ],
      "stateMutability": "nonpayable",
      "type": "function"
    },
    {
      "inputs": [
        {
          "internalType": "uint256[]",
          "name": "amounts",
          "type": "uint256[]"
        },
        {
          "internalType": "uint256",
          "name": "maxBurnAmount",
          "type": "uint256"
        },
        {
          "internalType": "uint256",
          "name": "deadline",
          "type": "uint256"
        }
      ],
      "name": "removeLiquidityImbalance",
      "outputs": [
        {
          "internalType": "uint256",
          "name": "",
          "type": "uint256"
        }
      ],
      "stateMutability": "nonpayable",
      "type": "function"
    },
    {
      "inputs": [
        {
          "internalType": "uint256",
          "name": "tokenAmount",
          "type": "uint256"
        },
        {
          "internalType": "uint8",
          "name": "tokenIndex",
          "type": "uint8"
        },
        {
          "internalType": "uint256",
          "name": "minAmount",
          "type": "uint256"
        },
        {
          "internalType": "uint256",
          "name": "deadline",
          "type": "uint256"
        }
      ],
      "name": "removeLiquidityOneToken",
      "outputs": [
        {
          "internalType": "uint256",
          "name": "",
          "type": "uint256"
        }
      ],
      "stateMutability": "nonpayable",
      "type": "function"
    },
    {
      "inputs": [],
      "name": "renounceOwnership",
      "outputs": [],
      "stateMutability": "nonpayable",
      "type": "function"
    },
    {
      "inputs": [
        {
          "internalType": "uint256",
          "name": "newAdminFee",
          "type": "uint256"
        }
      ],
      "name": "setAdminFee",
      "outputs": [],
      "stateMutability": "nonpayable",
      "type": "function"
    },
    {
      "inputs": [
        {
          "internalType": "uint256",
          "name": "newWithdrawFee",
          "type": "uint256"
        }
      ],
      "name": "setDefaultWithdrawFee",
      "outputs": [],
      "stateMutability": "nonpayable",
      "type": "function"
    },
    {
      "inputs": [
        {
          "internalType": "uint256",
          "name": "newSwapFee",
          "type": "uint256"
        }
      ],
      "name": "setSwapFee",
      "outputs": [],
      "stateMutability": "nonpayable",
      "type": "function"
    },
    {
      "inputs": [],
      "name": "stopRampA",
      "outputs": [],
      "stateMutability": "nonpayable",
      "type": "function"
    },
    {
      "inputs": [
        {
          "internalType": "uint8",
          "name": "tokenIndexFrom",
          "type": "uint8"
        },
        {
          "internalType": "uint8",
          "name": "tokenIndexTo",
          "type": "uint8"
        },
        {
          "internalType": "uint256",
          "name": "dx",
          "type": "uint256"
        },
        {
          "internalType": "uint256",
          "name": "minDy",
          "type": "uint256"
        },
        {
          "internalType": "uint256",
          "name": "deadline",
          "type": "uint256"
        }
      ],
      "name": "swap",
      "outputs": [
        {
          "internalType": "uint256",
          "name": "",
          "type": "uint256"
        }
      ],
      "stateMutability": "nonpayable",
      "type": "function"
    },
    {
      "inputs": [],
      "name": "swapStorage",
      "outputs": [
        {
          "internalType": "uint256",
          "name": "initialA",
          "type": "uint256"
        },
        {
          "internalType": "uint256",
          "name": "futureA",
          "type": "uint256"
        },
        {
          "internalType": "uint256",
          "name": "initialATime",
          "type": "uint256"
        },
        {
          "internalType": "uint256",
          "name": "futureATime",
          "type": "uint256"
        },
        {
          "internalType": "uint256",
          "name": "swapFee",
          "type": "uint256"
        },
        {
          "internalType": "uint256",
          "name": "adminFee",
          "type": "uint256"
        },
        {
          "internalType": "uint256",
          "name": "defaultWithdrawFee",
          "type": "uint256"
        },
        {
          "internalType": "contract LPToken",
          "name": "lpToken",
          "type": "address"
        }
      ],
      "stateMutability": "view",
      "type": "function"
    },
    {
      "inputs": [
        {
          "internalType": "address",
          "name": "newOwner",
          "type": "address"
        }
      ],
      "name": "transferOwnership",
      "outputs": [],
      "stateMutability": "nonpayable",
      "type": "function"
    },
    {
      "inputs": [],
      "name": "unpause",
      "outputs": [],
      "stateMutability": "nonpayable",
      "type": "function"
    },
    {
      "inputs": [
        {
          "internalType": "address",
          "name": "recipient",
          "type": "address"
        },
        {
          "internalType": "uint256",
          "name": "transferAmount",
          "type": "uint256"
        }
      ],
      "name": "updateUserWithdrawFee",
      "outputs": [],
      "stateMutability": "nonpayable",
      "type": "function"
    },
    {
      "inputs": [],
      "name": "withdrawAdminFees",
      "outputs": [],
      "stateMutability": "nonpayable",
      "type": "function"
    }
  ],
  "bytecode": "0x608060405260d6805460ff1916905534801561001a57600080fd5b5061485e8061002a6000396000f3fe60806040523480156200001157600080fd5b50600436106200022c5760003560e01c80638456cb591162000135578063ac5bf26311620000bd578063da7a77be1162000087578063da7a77be14620009a3578063e25aa5fa14620009cc578063ef0a712f14620009d6578063f2fde38b14620009f6578063f9273ffb1462000a1f576200022c565b8063ac5bf2631462000940578063c00c125c1462000960578063c4db7fa0146200098f578063d46300fd1462000999576200022c565b80639169558611620000ff57806391695586146200087357806391ceb3eb14620008b257806398899f4014620008d5578063a95b089f146200090d576200022c565b80638456cb5914620007c557806384cdd9bc14620007cf5780638beb60b614620008495780638da5cb5b1462000869576200022c565b8063593d132c11620001b95780636dd4480b11620001835780636dd4480b14620004ff578063715018a6146200074d5780637c61e561146200075757806382b866001462000786576200022c565b8063593d132c14620004285780635c975abb146200044e5780635fd65f0f146200046c57806366c0bd2414620004c0576200022c565b80633e3a156011620001fb5780633e3a156014620003465780633f4ba83a146200037b5780634a1b0d5714620003855780634d49e87d14620003ae576200022c565b80630419b45a14620002315780630ba81959146200023d57806331cd52b0146200025957806334e199071462000326575b600080fd5b6200023b62000aa5565b005b6200024762000b93565b60408051918252519081900360200190f35b620002d4600480360360608110156200027157600080fd5b81359190810190604081016020820135600160201b8111156200029357600080fd5b820183602082011115620002a657600080fd5b803590602001918460208302840111600160201b83111715620002c857600080fd5b91935091503562000c1b565b60408051602080825283518183015283519192839290830191858101910280838360005b8381101562000312578181015183820152602001620002f8565b505050509050019250505060405180910390f35b6200023b600480360360208110156200033e57600080fd5b503562000e24565b62000247600480360360808110156200035e57600080fd5b5080359060ff602082013516906040810135906060013562000f02565b6200023b62001092565b62000247600480360360208110156200039d57600080fd5b50356001600160a01b031662001106565b6200024760048036036060811015620003c657600080fd5b810190602081018135600160201b811115620003e157600080fd5b820183602082011115620003f457600080fd5b803590602001918460208302840111600160201b831117156200041657600080fd5b919350915080359060200135620011a0565b6200023b600480360360408110156200044057600080fd5b50803590602001356200131b565b6200045862001401565b604080519115158252519081900360200190f35b620004766200140a565b604080519889526020890197909752878701959095526060870193909352608086019190915260a085015260c08401526001600160a01b031660e083015251908190036101000190f35b620004e960048036036020811015620004d857600080fd5b50356001600160a01b03166200142e565b6040805160ff9092168252519081900360200190f35b6200023b60048036036101008110156200051857600080fd5b810190602081018135600160201b8111156200053357600080fd5b8201836020820111156200054657600080fd5b803590602001918460208302840111600160201b831117156200056857600080fd5b9190808060200260200160405190810160405280939291908181526020018383602002808284376000920191909152509295949360208101935035915050600160201b811115620005b857600080fd5b820183602082011115620005cb57600080fd5b803590602001918460208302840111600160201b83111715620005ed57600080fd5b9190808060200260200160405190810160405280939291908181526020018383602002808284376000920191909152509295949360208101935035915050600160201b8111156200063d57600080fd5b8201836020820111156200065057600080fd5b803590602001918460018302840111600160201b831117156200067257600080fd5b91908080601f0160208091040260200160405190810160405280939291908181526020018383808284376000920191909152509295949360208101935035915050600160201b811115620006c557600080fd5b820183602082011115620006d857600080fd5b803590602001918460018302840111600160201b83111715620006fa57600080fd5b91908080601f0160208091040260200160405190810160405280939291908181526020018383808284376000920191909152509295505082359350505060208101359060408101359060600135620014b3565b6200023b62001c89565b620002d4600480360360408110156200076f57600080fd5b506001600160a01b03813516906020013562001d3b565b620007a9600480360360208110156200079e57600080fd5b503560ff1662001e7e565b604080516001600160a01b039092168252519081900360200190f35b6200023b62001ef7565b6200024760048036036060811015620007e757600080fd5b810190602081018135600160201b8111156200080257600080fd5b8201836020820111156200081557600080fd5b803590602001918460208302840111600160201b831117156200083757600080fd5b91935091508035906020013562001f69565b6200023b600480360360208110156200086157600080fd5b5035620020e4565b620007a9620021a6565b62000247600480360360a08110156200088b57600080fd5b5060ff813581169160208101359091169060408101359060608101359060800135620021b5565b6200024760048036036020811015620008ca57600080fd5b503560ff166200234e565b6200024760048036036060811015620008ed57600080fd5b5080356001600160a01b0316906020810135906040013560ff16620023c4565b62000247600480360360608110156200092557600080fd5b5060ff8135811691602081013590911690604001356200246b565b6200023b600480360360208110156200095857600080fd5b503562002506565b6200023b600480360360408110156200097857600080fd5b506001600160a01b038135169060200135620025c8565b6200023b62002691565b620002476200274c565b6200024760048036036020811015620009bb57600080fd5b50356001600160a01b0316620027a1565b6200024762002807565b6200024760048036036020811015620009ee57600080fd5b50356200285c565b6200023b6004803603602081101562000a0e57600080fd5b50356001600160a01b0316620028b9565b620002476004803603606081101562000a3757600080fd5b6001600160a01b038235169190810190604081016020820135600160201b81111562000a6257600080fd5b82018360208201111562000a7557600080fd5b803590602001918460208302840111600160201b8311171562000a9757600080fd5b9193509150351515620029c4565b62000aaf62002aa2565b6001600160a01b031662000ac2620021a6565b6001600160a01b03161462000b0d576040805162461bcd60e51b8152602060048201819052602482015260008051602062004809833981519152604482015290519081900360640190fd5b73__$a4e4384d4f8ec13c7a898ae597a4175ef6$__6324c5c75160c962000b33620021a6565b6040518363ffffffff1660e01b815260040180838152602001826001600160a01b031681526020019250505060006040518083038186803b15801562000b7857600080fd5b505af415801562000b8d573d6000803e3d6000fd5b50505050565b600060c973__$a4e4384d4f8ec13c7a898ae597a4175ef6$__63c9b64dcb90916040518263ffffffff1660e01b81526004018082815260200191505060206040518083038186803b15801562000be857600080fd5b505af415801562000bfd573d6000803e3d6000fd5b505050506040513d602081101562000c1457600080fd5b5051905090565b60606002609754141562000c65576040805162461bcd60e51b815260206004820152601f602482015260008051602062004774833981519152604482015290519081900360640190fd5b6002609755814281101562000cb4576040805162461bcd60e51b815260206004820152601060248201526f111958591b1a5b99481b9bdd081b595d60821b604482015290519081900360640190fd5b60c973__$a4e4384d4f8ec13c7a898ae597a4175ef6$__6373fd6b3e90918888886040518563ffffffff1660e01b815260040180858152602001848152602001806020018281038252848482818152602001925060200280828437600081840152601f19601f8201169050808301925050509550505050505060006040518083038186803b15801562000d4657600080fd5b505af415801562000d5b573d6000803e3d6000fd5b505050506040513d6000823e601f3d908101601f19168201604052602081101562000d8557600080fd5b8101908080516040519392919084600160201b82111562000da557600080fd5b90830190602082018581111562000dbb57600080fd5b82518660208202830111600160201b8211171562000dd857600080fd5b82525081516020918201928201910280838360005b8381101562000e0757818101518382015260200162000ded565b505050509050016040525050509150506001609755949350505050565b62000e2e62002aa2565b6001600160a01b031662000e41620021a6565b6001600160a01b03161462000e8c576040805162461bcd60e51b8152602060048201819052602482015260008051602062004809833981519152604482015290519081900360640190fd5b6040805163119f861b60e21b815260c9600482015260248101839052905173__$a4e4384d4f8ec13c7a898ae597a4175ef6$__9163467e186c916044808301926000929190829003018186803b15801562000ee657600080fd5b505af415801562000efb573d6000803e3d6000fd5b5050505050565b60006002609754141562000f4c576040805162461bcd60e51b815260206004820152601f602482015260008051602062004774833981519152604482015290519081900360640190fd5b600260975562000f5b62001401565b1562000fa1576040805162461bcd60e51b815260206004820152601060248201526f14185d5cd8589b194e881c185d5cd95960821b604482015290519081900360640190fd5b818042111562000feb576040805162461bcd60e51b815260206004820152601060248201526f111958591b1a5b99481b9bdd081b595d60821b604482015290519081900360640190fd5b6040805163e7a4db8160e01b815260c960048201526024810188905260ff8716604482015260648101869052905173__$a4e4384d4f8ec13c7a898ae597a4175ef6$__9163e7a4db81916084808301926020929190829003018186803b1580156200105557600080fd5b505af41580156200106a573d6000803e3d6000fd5b505050506040513d60208110156200108157600080fd5b505160016097559695505050505050565b6200109c62002aa2565b6001600160a01b0316620010af620021a6565b6001600160a01b031614620010fa576040805162461bcd60e51b8152602060048201819052602482015260008051602062004809833981519152604482015290519081900360640190fd5b6200110462002aa6565b565b604080516325a3956560e21b815260c960048201526001600160a01b0383166024820152905160009173__$a4e4384d4f8ec13c7a898ae597a4175ef6$__9163968e559491604480820192602092909190829003018186803b1580156200116c57600080fd5b505af415801562001181573d6000803e3d6000fd5b505050506040513d60208110156200119857600080fd5b505192915050565b600060026097541415620011ea576040805162461bcd60e51b815260206004820152601f602482015260008051602062004774833981519152604482015290519081900360640190fd5b6002609755620011f962001401565b156200123f576040805162461bcd60e51b815260206004820152601060248201526f14185d5cd8589b194e881c185d5cd95960821b604482015290519081900360640190fd5b818042111562001289576040805162461bcd60e51b815260206004820152601060248201526f111958591b1a5b99481b9bdd081b595d60821b604482015290519081900360640190fd5b60c973__$a4e4384d4f8ec13c7a898ae597a4175ef6$__6340370edf90918888886040518563ffffffff1660e01b815260040180858152602001806020018381526020018281038252858582818152602001925060200280828437600081840152601f19601f8201169050808301925050509550505050505060206040518083038186803b1580156200105557600080fd5b6200132562002aa2565b6001600160a01b031662001338620021a6565b6001600160a01b03161462001383576040805162461bcd60e51b8152602060048201819052602482015260008051602062004809833981519152604482015290519081900360640190fd5b604080516358fdd79b60e01b815260c960048201526024810184905260448101839052905173__$a4e4384d4f8ec13c7a898ae597a4175ef6$__916358fdd79b916064808301926000929190829003018186803b158015620013e457600080fd5b505af4158015620013f9573d6000803e3d6000fd5b505050505050565b60655460ff1690565b60c95460ca5460cb5460cc5460cd5460ce5460cf5460d0546001600160a01b031688565b6001600160a01b038116600081815260d76020526040812054909160ff909116906200145a8262001e7e565b6001600160a01b031614620014ad576040805162461bcd60e51b8152602060048201526014602482015273151bdad95b88191bd95cc81b9bdd08195e1a5cdd60621b604482015290519081900360640190fd5b92915050565b600054610100900460ff1680620014cf5750620014cf62002b4b565b80620014de575060005460ff16155b6200151b5760405162461bcd60e51b815260040180806020018281038252602e815260200180620047ba602e913960400191505060405180910390fd5b600054610100900460ff1615801562001547576000805460ff1961ff0019909116610100171660011790555b6200155162002b5e565b6200155b62002c26565b6001895111620015b2576040805162461bcd60e51b815260206004820152601960248201527f5f706f6f6c6564546f6b656e732e6c656e677468203c3d203100000000000000604482015290519081900360640190fd5b6020895111156200160a576040805162461bcd60e51b815260206004820152601960248201527f5f706f6f6c6564546f6b656e732e6c656e677468203e20333200000000000000604482015290519081900360640190fd5b875189511462001661576040805162461bcd60e51b815260206004820152601f60248201527f5f706f6f6c6564546f6b656e7320646563696d616c73206d69736d6174636800604482015290519081900360640190fd5b6060885167ffffffffffffffff811180156200167c57600080fd5b50604051908082528060200260200182016040528015620016a7578160200160208202803683370190505b50905060005b8a518160ff161015620019295760ff811615620017905760d760008c8360ff1681518110620016d857fe5b6020908102919091018101516001600160a01b031682528101919091526040016000205460ff161580156200174b57508a8160ff16815181106200171857fe5b60200260200101516001600160a01b03168b6000815181106200173757fe5b60200260200101516001600160a01b031614155b62001790576040805162461bcd60e51b815260206004820152601060248201526f4475706c696361746520746f6b656e7360801b604482015290519081900360640190fd5b60006001600160a01b03168b8260ff1681518110620017ab57fe5b60200260200101516001600160a01b0316141562001810576040805162461bcd60e51b815260206004820152601d60248201527f546865203020616464726573732069736e277420616e204552432d3230000000604482015290519081900360640190fd5b601260ff168a8260ff16815181106200182557fe5b602002602001015160ff16111562001884576040805162461bcd60e51b815260206004820152601a60248201527f546f6b656e20646563696d616c732065786365656473206d6178000000000000604482015290519081900360640190fd5b620018b78a8260ff16815181106200189857fe5b602002602001015160ff16601260ff1662002cc490919063ffffffff16565b600a0a828260ff1681518110620018ca57fe5b6020026020010181815250508060d760008d8460ff1681518110620018eb57fe5b6020908102919091018101516001600160a01b03168252810191909152604001600020805460ff191660ff92909216919091179055600101620016ad565b50620f4240861062001977576040805162461bcd60e51b81526020600482015260126024820152715f612065786365656473206d6178696d756d60701b604482015290519081900360640190fd5b6305f5e1008510620019c7576040805162461bcd60e51b81526020600482015260146024820152735f6665652065786365656473206d6178696d756d60601b604482015290519081900360640190fd5b6402540be400841062001a21576040805162461bcd60e51b815260206004820152601960248201527f5f61646d696e4665652065786365656473206d6178696d756d00000000000000604482015290519081900360640190fd5b6305f5e100831062001a7a576040805162461bcd60e51b815260206004820152601c60248201527f5f77697468647261774665652065786365656473206d6178696d756d00000000604482015290519081900360640190fd5b8787601260405162001a8c90620031a2565b60ff82166040820152606080825284519082015283518190602080830191608084019188019080838360005b8381101562001ad257818101518382015260200162001ab8565b50505050905090810190601f16801562001b005780820380516001836020036101000a031916815260200191505b50838103825285518152855160209182019187019080838360005b8381101562001b3557818101518382015260200162001b1b565b50505050905090810190601f16801562001b635780820380516001836020036101000a031916815260200191505b5095505050505050604051809103906000f08015801562001b88573d6000803e3d6000fd5b5060d080546001600160a01b0319166001600160a01b0392909216919091179055895162001bbe9060d19060208d0190620031b0565b50805162001bd49060d29060208401906200321a565b50895167ffffffffffffffff8111801562001bee57600080fd5b5060405190808252806020026020018201604052801562001c19578160200160208202803683370190505b50805162001c309160d3916020909101906200321a565b5062001c3e86606462002d0f565b60c95562001c4e86606462002d0f565b60ca5550600060cb81905560cc5560cd84905560ce83905560cf829055801562001c7e576000805461ff00191690555b505050505050505050565b62001c9362002aa2565b6001600160a01b031662001ca6620021a6565b6001600160a01b03161462001cf1576040805162461bcd60e51b8152602060048201819052602482015260008051602062004809833981519152604482015290519081900360640190fd5b6033546040516000916001600160a01b0316907f8be0079c531659141344cd1fd0a4f28419497f9722a3daafe3b4186f6b6457e0908390a3603380546001600160a01b0319169055565b6040805163f967a81f60e01b815260c960048201526001600160a01b038416602482015260448101839052905160609173__$a4e4384d4f8ec13c7a898ae597a4175ef6$__9163f967a81f91606480820192600092909190829003018186803b15801562001da857600080fd5b505af415801562001dbd573d6000803e3d6000fd5b505050506040513d6000823e601f3d908101601f19168201604052602081101562001de757600080fd5b8101908080516040519392919084600160201b82111562001e0757600080fd5b90830190602082018581111562001e1d57600080fd5b82518660208202830111600160201b8211171562001e3a57600080fd5b82525081516020918201928201910280838360005b8381101562001e6957818101518382015260200162001e4f565b50505050905001604052505050905092915050565b60d15460009060ff83161062001eca576040805162461bcd60e51b815260206004820152600c60248201526b4f7574206f662072616e676560a01b604482015290519081900360640190fd5b60d1805460ff841690811062001edc57fe5b6000918252602090912001546001600160a01b031692915050565b62001f0162002aa2565b6001600160a01b031662001f14620021a6565b6001600160a01b03161462001f5f576040805162461bcd60e51b8152602060048201819052602482015260008051602062004809833981519152604482015290519081900360640190fd5b6200110462002d6d565b60006002609754141562001fb3576040805162461bcd60e51b815260206004820152601f602482015260008051602062004774833981519152604482015290519081900360640190fd5b600260975562001fc262001401565b1562002008576040805162461bcd60e51b815260206004820152601060248201526f14185d5cd8589b194e881c185d5cd95960821b604482015290519081900360640190fd5b818042111562002052576040805162461bcd60e51b815260206004820152601060248201526f111958591b1a5b99481b9bdd081b595d60821b604482015290519081900360640190fd5b60c973__$a4e4384d4f8ec13c7a898ae597a4175ef6$__6341b91c2690918888886040518563ffffffff1660e01b815260040180858152602001806020018381526020018281038252858582818152602001925060200280828437600081840152601f19601f8201169050808301925050509550505050505060206040518083038186803b1580156200105557600080fd5b620020ee62002aa2565b6001600160a01b031662002101620021a6565b6001600160a01b0316146200214c576040805162461bcd60e51b8152602060048201819052602482015260008051602062004809833981519152604482015290519081900360640190fd5b60408051633823393b60e11b815260c9600482015260248101839052905173__$a4e4384d4f8ec13c7a898ae597a4175ef6$__916370467276916044808301926000929190829003018186803b15801562000ee657600080fd5b6033546001600160a01b031690565b600060026097541415620021ff576040805162461bcd60e51b815260206004820152601f602482015260008051602062004774833981519152604482015290519081900360640190fd5b60026097556200220e62001401565b1562002254576040805162461bcd60e51b815260206004820152601060248201526f14185d5cd8589b194e881c185d5cd95960821b604482015290519081900360640190fd5b81804211156200229e576040805162461bcd60e51b815260206004820152601060248201526f111958591b1a5b99481b9bdd081b595d60821b604482015290519081900360640190fd5b6040805163529cbd9160e11b815260c9600482015260ff808a166024830152881660448201526064810187905260848101869052905173__$a4e4384d4f8ec13c7a898ae597a4175ef6$__9163a5397b229160a4808301926020929190829003018186803b1580156200231057600080fd5b505af415801562002325573d6000803e3d6000fd5b505050506040513d60208110156200233c57600080fd5b50516001609755979650505050505050565b60d15460009060ff831610620023a0576040805162461bcd60e51b8152602060048201526012602482015271496e646578206f7574206f662072616e676560701b604482015290519081900360640190fd5b60d3805460ff8416908110620023b257fe5b90600052602060002001549050919050565b60408051637254d06d60e11b815260c960048201526001600160a01b03851660248201526044810184905260ff83166064820152815160009273__$a4e4384d4f8ec13c7a898ae597a4175ef6$__9263e4a9a0da9260848083019392829003018186803b1580156200243557600080fd5b505af41580156200244a573d6000803e3d6000fd5b505050506040513d60408110156200246157600080fd5b5051949350505050565b604080516312c8d80f60e21b815260c9600482015260ff80861660248301528416604482015260648101839052905160009173__$a4e4384d4f8ec13c7a898ae597a4175ef6$__91634b23603c91608480820192602092909190829003018186803b158015620024da57600080fd5b505af4158015620024ef573d6000803e3d6000fd5b505050506040513d60208110156200246157600080fd5b6200251062002aa2565b6001600160a01b031662002523620021a6565b6001600160a01b0316146200256e576040805162461bcd60e51b8152602060048201819052602482015260008051602062004809833981519152604482015290519081900360640190fd5b6040805163455bb4bf60e11b815260c9600482015260248101839052905173__$a4e4384d4f8ec13c7a898ae597a4175ef6$__91638ab7697e916044808301926000929190829003018186803b15801562000ee657600080fd5b60d0546001600160a01b0316331462002628576040805162461bcd60e51b815260206004820152601b60248201527f4f6e6c792063616c6c61626c6520627920706f6f6c20746f6b656e0000000000604482015290519081900360640190fd5b6040805163749296a360e11b815260c960048201526001600160a01b038416602482015260448101839052905173__$a4e4384d4f8ec13c7a898ae597a4175ef6$__9163e9252d46916064808301926000929190829003018186803b158015620013e457600080fd5b6200269b62002aa2565b6001600160a01b0316620026ae620021a6565b6001600160a01b031614620026f9576040805162461bcd60e51b8152602060048201819052602482015260008051602062004809833981519152604482015290519081900360640190fd5b604080516378a7108f60e11b815260c96004820152905173__$a4e4384d4f8ec13c7a898ae597a4175ef6$__9163f14e211e916024808301926000929190829003018186803b15801562000b7857600080fd5b600060c973__$a4e4384d4f8ec13c7a898ae597a4175ef6$__63b0a14cfc90916040518263ffffffff1660e01b81526004018082815260200191505060206040518083038186803b15801562000be857600080fd5b60408051633a311e9560e21b815260c960048201526001600160a01b0383166024820152905160009173__$a4e4384d4f8ec13c7a898ae597a4175ef6$__9163e8c47a5491604480820192602092909190829003018186803b1580156200116c57600080fd5b600060c973__$a4e4384d4f8ec13c7a898ae597a4175ef6$__6371906c2c90916040518263ffffffff1660e01b81526004018082815260200191505060206040518083038186803b15801562000be857600080fd5b600060c973__$a4e4384d4f8ec13c7a898ae597a4175ef6$__637d0481609091846040518363ffffffff1660e01b8152600401808381526020018281526020019250505060206040518083038186803b1580156200116c57600080fd5b620028c362002aa2565b6001600160a01b0316620028d6620021a6565b6001600160a01b03161462002921576040805162461bcd60e51b8152602060048201819052602482015260008051602062004809833981519152604482015290519081900360640190fd5b6001600160a01b038116620029685760405162461bcd60e51b8152600401808060200182810382526026815260200180620047946026913960400191505060405180910390fd5b6033546040516001600160a01b038084169216907f8be0079c531659141344cd1fd0a4f28419497f9722a3daafe3b4186f6b6457e090600090a3603380546001600160a01b0319166001600160a01b0392909216919091179055565b600060c973__$a4e4384d4f8ec13c7a898ae597a4175ef6$__635e58579c9091878787876040518663ffffffff1660e01b815260040180868152602001856001600160a01b031681526020018060200183151581526020018281038252858582818152602001925060200280828437600081840152601f19601f820116905080830192505050965050505050505060206040518083038186803b15801562002a6b57600080fd5b505af415801562002a80573d6000803e3d6000fd5b505050506040513d602081101562002a9757600080fd5b505195945050505050565b3390565b62002ab062001401565b62002af9576040805162461bcd60e51b815260206004820152601460248201527314185d5cd8589b194e881b9bdd081c185d5cd95960621b604482015290519081900360640190fd5b6065805460ff191690557f5db9ee0a495bf2e6ff9c91a7834c1ba4fdd244a5e8aa4e537bd38aeae4b073aa62002b2e62002aa2565b604080516001600160a01b039092168252519081900360200190a1565b600062002b583062002df5565b15905090565b600054610100900460ff168062002b7a575062002b7a62002b4b565b8062002b89575060005460ff16155b62002bc65760405162461bcd60e51b815260040180806020018281038252602e815260200180620047ba602e913960400191505060405180910390fd5b600054610100900460ff1615801562002bf2576000805460ff1961ff0019909116610100171660011790555b62002bfc62002dfb565b62002c0662002ea3565b62002c1062002fa6565b801562002c23576000805461ff00191690555b50565b600054610100900460ff168062002c42575062002c4262002b4b565b8062002c51575060005460ff16155b62002c8e5760405162461bcd60e51b815260040180806020018281038252602e815260200180620047ba602e913960400191505060405180910390fd5b600054610100900460ff1615801562002cba576000805460ff1961ff0019909116610100171660011790555b62002c1062003059565b600062002d0883836040518060400160405280601e81526020017f536166654d6174683a207375627472616374696f6e206f766572666c6f77000081525062003107565b9392505050565b60008262002d2057506000620014ad565b8282028284828162002d2e57fe5b041462002d085760405162461bcd60e51b8152600401808060200182810382526021815260200180620047e86021913960400191505060405180910390fd5b62002d7762001401565b1562002dbd576040805162461bcd60e51b815260206004820152601060248201526f14185d5cd8589b194e881c185d5cd95960821b604482015290519081900360640190fd5b6065805460ff191660011790557f62e78cea01bee320cd4e420270b5ea74000d11b0c9f74754ebdbfc544b05a25862002b2e62002aa2565b3b151590565b600054610100900460ff168062002e17575062002e1762002b4b565b8062002e26575060005460ff16155b62002e635760405162461bcd60e51b815260040180806020018281038252602e815260200180620047ba602e913960400191505060405180910390fd5b600054610100900460ff1615801562002c10576000805460ff1961ff001990911661010017166001179055801562002c23576000805461ff001916905550565b600054610100900460ff168062002ebf575062002ebf62002b4b565b8062002ece575060005460ff16155b62002f0b5760405162461bcd60e51b815260040180806020018281038252602e815260200180620047ba602e913960400191505060405180910390fd5b600054610100900460ff1615801562002f37576000805460ff1961ff0019909116610100171660011790555b600062002f4362002aa2565b603380546001600160a01b0319166001600160a01b038316908117909155604051919250906000907f8be0079c531659141344cd1fd0a4f28419497f9722a3daafe3b4186f6b6457e0908290a350801562002c23576000805461ff001916905550565b600054610100900460ff168062002fc2575062002fc262002b4b565b8062002fd1575060005460ff16155b6200300e5760405162461bcd60e51b815260040180806020018281038252602e815260200180620047ba602e913960400191505060405180910390fd5b600054610100900460ff161580156200303a576000805460ff1961ff0019909116610100171660011790555b6065805460ff19169055801562002c23576000805461ff001916905550565b600054610100900460ff16806200307557506200307562002b4b565b8062003084575060005460ff16155b620030c15760405162461bcd60e51b815260040180806020018281038252602e815260200180620047ba602e913960400191505060405180910390fd5b600054610100900460ff16158015620030ed576000805460ff1961ff0019909116610100171660011790555b6001609755801562002c23576000805461ff001916905550565b600081848411156200319a5760405162461bcd60e51b81526004018080602001828103825283818151815260200191508051906020019080838360005b838110156200315e57818101518382015260200162003144565b50505050905090810190601f1680156200318c5780820380516001836020036101000a031916815260200191505b509250505060405180910390fd5b505050900390565b6114d5806200329f83390190565b82805482825590600052602060002090810192821562003208579160200282015b828111156200320857825182546001600160a01b0319166001600160a01b03909116178255602090920191600190910190620031d1565b506200321692915062003266565b5090565b82805482825590600052602060002090810192821562003258579160200282015b82811115620032585782518255916020019190600101906200323b565b506200321692915062003287565b5b80821115620032165780546001600160a01b031916815560010162003267565b5b808211156200321657600081556001016200328856fe60806040523480156200001157600080fd5b50604051620014d5380380620014d5833981810160405260608110156200003757600080fd5b81019080805160405193929190846401000000008211156200005857600080fd5b9083019060208201858111156200006e57600080fd5b82516401000000008111828201881017156200008957600080fd5b82525081516020918201929091019080838360005b83811015620000b85781810151838201526020016200009e565b50505050905090810190601f168015620000e65780820380516001836020036101000a031916815260200191505b50604052602001805160405193929190846401000000008211156200010a57600080fd5b9083019060208201858111156200012057600080fd5b82516401000000008111828201881017156200013b57600080fd5b82525081516020918201929091019080838360005b838110156200016a57818101518382015260200162000150565b50505050905090810190601f168015620001985780820380516001836020036101000a031916815260200191505b5060405260209081015185519093508592508491620001bd916003918501906200029e565b508051620001d39060049060208401906200029e565b50506005805460ff19166012179055506000620001ef62000284565b60058054610100600160a81b0319166101006001600160a01b03841690810291909117909155604051919250906000907f8be0079c531659141344cd1fd0a4f28419497f9722a3daafe3b4186f6b6457e0908290a350620002508162000288565b6200025a62000284565b600680546001600160a01b0319166001600160a01b0392909216919091179055506200033a915050565b3390565b6005805460ff191660ff92909216919091179055565b828054600181600116156101000203166002900490600052602060002090601f016020900481019282601f10620002e157805160ff191683800117855562000311565b8280016001018555821562000311579182015b8281111562000311578251825591602001919060010190620002f4565b506200031f92915062000323565b5090565b5b808211156200031f576000815560010162000324565b61118b806200034a6000396000f3fe608060405234801561001057600080fd5b50600436106101165760003560e01c8063715018a6116100a257806395d89b411161007157806395d89b4114610343578063a457c2d71461034b578063a9059cbb14610377578063dd62ed3e146103a3578063f2fde38b146103d157610116565b8063715018a6146102e357806379cc6790146102eb5780638119c065146103175780638da5cb5b1461033b57610116565b8063313ce567116100e9578063313ce56714610228578063395093511461024657806340c10f191461027257806342966c68146102a057806370a08231146102bd57610116565b806306fdde031461011b578063095ea7b31461019857806318160ddd146101d857806323b872dd146101f2575b600080fd5b6101236103f7565b6040805160208082528351818301528351919283929083019185019080838360005b8381101561015d578181015183820152602001610145565b50505050905090810190601f16801561018a5780820380516001836020036101000a031916815260200191505b509250505060405180910390f35b6101c4600480360360408110156101ae57600080fd5b506001600160a01b03813516906020013561048d565b604080519115158252519081900360200190f35b6101e06104aa565b60408051918252519081900360200190f35b6101c46004803603606081101561020857600080fd5b506001600160a01b038135811691602081013590911690604001356104b0565b610230610537565b6040805160ff9092168252519081900360200190f35b6101c46004803603604081101561025c57600080fd5b506001600160a01b038135169060200135610540565b61029e6004803603604081101561028857600080fd5b506001600160a01b03813516906020013561058e565b005b61029e600480360360208110156102b657600080fd5b503561064b565b6101e0600480360360208110156102d357600080fd5b50356001600160a01b031661065f565b61029e61067a565b61029e6004803603604081101561030157600080fd5b506001600160a01b038135169060200135610739565b61031f610793565b604080516001600160a01b039092168252519081900360200190f35b61031f6107a2565b6101236107b6565b6101c46004803603604081101561036157600080fd5b506001600160a01b038135169060200135610817565b6101c46004803603604081101561038d57600080fd5b506001600160a01b03813516906020013561087f565b6101e0600480360360408110156103b957600080fd5b506001600160a01b0381358116916020013516610893565b61029e600480360360208110156103e757600080fd5b50356001600160a01b03166108be565b60038054604080516020601f60026000196101006001881615020190951694909404938401819004810282018101909252828152606093909290918301828280156104835780601f1061045857610100808354040283529160200191610483565b820191906000526020600020905b81548152906001019060200180831161046657829003601f168201915b5050505050905090565b60006104a161049a6109d9565b84846109dd565b50600192915050565b60025490565b60006104bd848484610ac9565b61052d846104c96109d9565b6105288560405180606001604052806028815260200161107b602891396001600160a01b038a166000908152600160205260408120906105076109d9565b6001600160a01b031681526020810191909152604001600020549190610c24565b6109dd565b5060019392505050565b60055460ff1690565b60006104a161054d6109d9565b84610528856001600061055e6109d9565b6001600160a01b03908116825260208083019390935260409182016000908120918c168152925290205490610cbb565b6105966109d9565b60055461010090046001600160a01b039081169116146105fd576040805162461bcd60e51b815260206004820181905260248201527f4f776e61626c653a2063616c6c6572206973206e6f7420746865206f776e6572604482015290519081900360640190fd5b8061063d576040805162461bcd60e51b815260206004820152600b60248201526a0616d6f756e74203d3d20360ac1b604482015290519081900360640190fd5b6106478282610d1c565b5050565b61065c6106566109d9565b82610e0c565b50565b6001600160a01b031660009081526020819052604090205490565b6106826109d9565b60055461010090046001600160a01b039081169116146106e9576040805162461bcd60e51b815260206004820181905260248201527f4f776e61626c653a2063616c6c6572206973206e6f7420746865206f776e6572604482015290519081900360640190fd5b60055460405160009161010090046001600160a01b0316907f8be0079c531659141344cd1fd0a4f28419497f9722a3daafe3b4186f6b6457e0908390a360058054610100600160a81b0319169055565b6000610770826040518060600160405280602481526020016110a360249139610769866107646109d9565b610893565b9190610c24565b90506107848361077e6109d9565b836109dd565b61078e8383610e0c565b505050565b6006546001600160a01b031681565b60055461010090046001600160a01b031690565b60048054604080516020601f60026000196101006001881615020190951694909404938401819004810282018101909252828152606093909290918301828280156104835780601f1061045857610100808354040283529160200191610483565b60006104a16108246109d9565b8461052885604051806060016040528060258152602001611131602591396001600061084e6109d9565b6001600160a01b03908116825260208083019390935260409182016000908120918d16815292529020549190610c24565b60006104a161088c6109d9565b8484610ac9565b6001600160a01b03918216600090815260016020908152604080832093909416825291909152205490565b6108c66109d9565b60055461010090046001600160a01b0390811691161461092d576040805162461bcd60e51b815260206004820181905260248201527f4f776e61626c653a2063616c6c6572206973206e6f7420746865206f776e6572604482015290519081900360640190fd5b6001600160a01b0381166109725760405162461bcd60e51b815260040180806020018281038252602681526020018061100d6026913960400191505060405180910390fd5b6005546040516001600160a01b0380841692610100900416907f8be0079c531659141344cd1fd0a4f28419497f9722a3daafe3b4186f6b6457e090600090a3600580546001600160a01b0390921661010002610100600160a81b0319909216919091179055565b3390565b6001600160a01b038316610a225760405162461bcd60e51b815260040180806020018281038252602481526020018061110d6024913960400191505060405180910390fd5b6001600160a01b038216610a675760405162461bcd60e51b81526004018080602001828103825260228152602001806110336022913960400191505060405180910390fd5b6001600160a01b03808416600081815260016020908152604080832094871680845294825291829020859055815185815291517f8c5be1e5ebec7d5bd14f71427d1e84f3dd0314c0f7b2291e5b200ac8c7c3b9259281900390910190a3505050565b6001600160a01b038316610b0e5760405162461bcd60e51b81526004018080602001828103825260258152602001806110e86025913960400191505060405180910390fd5b6001600160a01b038216610b535760405162461bcd60e51b8152600401808060200182810382526023815260200180610fc86023913960400191505060405180910390fd5b610b5e838383610f08565b610b9b81604051806060016040528060268152602001611055602691396001600160a01b0386166000908152602081905260409020549190610c24565b6001600160a01b038085166000908152602081905260408082209390935590841681522054610bca9082610cbb565b6001600160a01b038084166000818152602081815260409182902094909455805185815290519193928716927fddf252ad1be2c89b69c2b068fc378daa952ba7f163c4a11628f55a4df523b3ef92918290030190a3505050565b60008184841115610cb35760405162461bcd60e51b81526004018080602001828103825283818151815260200191508051906020019080838360005b83811015610c78578181015183820152602001610c60565b50505050905090810190601f168015610ca55780820380516001836020036101000a031916815260200191505b509250505060405180910390fd5b505050900390565b600082820183811015610d15576040805162461bcd60e51b815260206004820152601b60248201527f536166654d6174683a206164646974696f6e206f766572666c6f770000000000604482015290519081900360640190fd5b9392505050565b6001600160a01b038216610d77576040805162461bcd60e51b815260206004820152601f60248201527f45524332303a206d696e7420746f20746865207a65726f206164647265737300604482015290519081900360640190fd5b610d8360008383610f08565b600254610d909082610cbb565b6002556001600160a01b038216600090815260208190526040902054610db69082610cbb565b6001600160a01b0383166000818152602081815260408083209490945583518581529351929391927fddf252ad1be2c89b69c2b068fc378daa952ba7f163c4a11628f55a4df523b3ef9281900390910190a35050565b6001600160a01b038216610e515760405162461bcd60e51b81526004018080602001828103825260218152602001806110c76021913960400191505060405180910390fd5b610e5d82600083610f08565b610e9a81604051806060016040528060228152602001610feb602291396001600160a01b0385166000908152602081905260409020549190610c24565b6001600160a01b038316600090815260208190526040902055600254610ec09082610f85565b6002556040805182815290516000916001600160a01b038516917fddf252ad1be2c89b69c2b068fc378daa952ba7f163c4a11628f55a4df523b3ef9181900360200190a35050565b610f1383838361078e565b60065460408051633003049760e21b81526001600160a01b038581166004830152602482018590529151919092169163c00c125c91604480830192600092919082900301818387803b158015610f6857600080fd5b505af1158015610f7c573d6000803e3d6000fd5b50505050505050565b6000610d1583836040518060400160405280601e81526020017f536166654d6174683a207375627472616374696f6e206f766572666c6f770000815250610c2456fe45524332303a207472616e7366657220746f20746865207a65726f206164647265737345524332303a206275726e20616d6f756e7420657863656564732062616c616e63654f776e61626c653a206e6577206f776e657220697320746865207a65726f206164647265737345524332303a20617070726f766520746f20746865207a65726f206164647265737345524332303a207472616e7366657220616d6f756e7420657863656564732062616c616e636545524332303a207472616e7366657220616d6f756e74206578636565647320616c6c6f77616e636545524332303a206275726e20616d6f756e74206578636565647320616c6c6f77616e636545524332303a206275726e2066726f6d20746865207a65726f206164647265737345524332303a207472616e736665722066726f6d20746865207a65726f206164647265737345524332303a20617070726f76652066726f6d20746865207a65726f206164647265737345524332303a2064656372656173656420616c6c6f77616e63652062656c6f77207a65726fa2646970667358221220eae7fcd1e853a48ae8acad06fd5ddcd65a2969112094e11d02c8c2260d7fdc6664736f6c634300060c00335265656e7472616e637947756172643a207265656e7472616e742063616c6c004f776e61626c653a206e6577206f776e657220697320746865207a65726f2061646472657373496e697469616c697a61626c653a20636f6e747261637420697320616c726561647920696e697469616c697a6564536166654d6174683a206d756c7469706c69636174696f6e206f766572666c6f774f776e61626c653a2063616c6c6572206973206e6f7420746865206f776e6572a26469706673582212205e60ba3dc06d874d8b87e31f997bce14d73cd82b4d14473d9d88600a33dd2c4964736f6c634300060c0033",
  "linkReferences": {
    "contracts/SwapUtils.sol": {
      "SwapUtils": [
        {
          "length": 20,
          "start": 2873
        },
        {
          "length": 20,
          "start": 3011
        },
        {
          "length": 20,
          "start": 3298
        },
        {
          "length": 20,
          "start": 3798
        },
        {
          "length": 20,
          "start": 4165
        },
        {
          "length": 20,
          "start": 4443
        },
        {
          "length": 20,
          "start": 4791
        },
        {
          "length": 20,
          "start": 5076
        },
        {
          "length": 20,
          "start": 7575
        },
        {
          "length": 20,
          "start": 8320
        },
        {
          "length": 20,
          "start": 8598
        },
        {
          "length": 20,
          "start": 8960
        },
        {
          "length": 20,
          "start": 9257
        },
        {
          "length": 20,
          "start": 9417
        },
        {
          "length": 20,
          "start": 9656
        },
        {
          "length": 20,
          "start": 9857
        },
        {
          "length": 20,
          "start": 10044
        },
        {
          "length": 20,
          "start": 10108
        },
        {
          "length": 20,
          "start": 10230
        },
        {
          "length": 20,
          "start": 10295
        },
        {
          "length": 20,
          "start": 10380
        },
        {
          "length": 20,
          "start": 10740
        }
      ]
    }
  },
  "deployedLinkReferences": {
    "contracts/SwapUtils.sol": {
      "SwapUtils": [
        {
          "length": 20,
          "start": 2831
        },
        {
          "length": 20,
          "start": 2969
        },
        {
          "length": 20,
          "start": 3256
        },
        {
          "length": 20,
          "start": 3756
        },
        {
          "length": 20,
          "start": 4123
        },
        {
          "length": 20,
          "start": 4401
        },
        {
          "length": 20,
          "start": 4749
        },
        {
          "length": 20,
          "start": 5034
        },
        {
          "length": 20,
          "start": 7533
        },
        {
          "length": 20,
          "start": 8278
        },
        {
          "length": 20,
          "start": 8556
        },
        {
          "length": 20,
          "start": 8918
        },
        {
          "length": 20,
          "start": 9215
        },
        {
          "length": 20,
          "start": 9375
        },
        {
          "length": 20,
          "start": 9614
        },
        {
          "length": 20,
          "start": 9815
        },
        {
          "length": 20,
          "start": 10002
        },
        {
          "length": 20,
          "start": 10066
        },
        {
          "length": 20,
          "start": 10188
        },
        {
          "length": 20,
          "start": 10253
        },
        {
          "length": 20,
          "start": 10338
        },
        {
          "length": 20,
          "start": 10698
        }
      ]
    }
  }
}